{
  "contractName": "UsElectionVote",
  "abi": [
    {
      "anonymous": false,
      "inputs": [
        {
          "indexed": true,
          "internalType": "address",
          "name": "previousOwner",
          "type": "address"
        },
        {
          "indexed": true,
          "internalType": "address",
          "name": "newOwner",
          "type": "address"
        }
      ],
      "name": "OwnershipTransferred",
      "type": "event"
    },
    {
      "anonymous": false,
      "inputs": [
        {
          "indexed": false,
          "internalType": "address",
          "name": "voter",
          "type": "address"
        },
        {
          "indexed": false,
          "internalType": "string",
          "name": "candidate",
          "type": "string"
        }
      ],
      "name": "Vote",
      "type": "event"
    },
    {
      "constant": true,
      "inputs": [],
      "name": "isOwner",
      "outputs": [
        {
          "internalType": "bool",
          "name": "",
          "type": "bool"
        }
      ],
      "payable": false,
      "stateMutability": "view",
      "type": "function"
    },
    {
      "constant": true,
      "inputs": [],
      "name": "owner",
      "outputs": [
        {
          "internalType": "address",
          "name": "",
          "type": "address"
        }
      ],
      "payable": false,
      "stateMutability": "view",
      "type": "function"
    },
    {
      "constant": false,
      "inputs": [],
      "name": "renounceOwnership",
      "outputs": [],
      "payable": false,
      "stateMutability": "nonpayable",
      "type": "function"
    },
    {
      "constant": false,
      "inputs": [
        {
          "internalType": "address",
          "name": "newOwner",
          "type": "address"
        }
      ],
      "name": "transferOwnership",
      "outputs": [],
      "payable": false,
      "stateMutability": "nonpayable",
      "type": "function"
    },
    {
      "constant": false,
      "inputs": [
        {
          "internalType": "address",
          "name": "_voter",
          "type": "address"
        },
        {
          "internalType": "string",
          "name": "_candidate",
          "type": "string"
        }
      ],
      "name": "vote",
      "outputs": [],
      "payable": false,
      "stateMutability": "nonpayable",
      "type": "function"
    },
    {
      "constant": true,
      "inputs": [
        {
          "internalType": "string",
          "name": "_candidate",
          "type": "string"
        }
      ],
      "name": "getVote",
      "outputs": [
        {
          "internalType": "uint256",
          "name": "",
          "type": "uint256"
        }
      ],
      "payable": false,
      "stateMutability": "view",
      "type": "function"
    },
    {
      "constant": false,
      "inputs": [],
      "name": "kill",
      "outputs": [],
      "payable": false,
      "stateMutability": "nonpayable",
      "type": "function"
    }
  ],
  "bytecode": "0x608060405260006100146100b760201b60201c565b9050806000806101000a81548173ffffffffffffffffffffffffffffffffffffffff021916908373ffffffffffffffffffffffffffffffffffffffff1602179055508073ffffffffffffffffffffffffffffffffffffffff16600073ffffffffffffffffffffffffffffffffffffffff167f8be0079c531659141344cd1fd0a4f28419497f9722a3daafe3b4186f6b6457e060405160405180910390a3506100bf565b600033905090565b610aec806100ce6000396000f3fe608060405234801561001057600080fd5b506004361061007d5760003560e01c80638da5cb5b1161005b5780638da5cb5b1461012f5780638f32d59b14610179578063baa40e5c1461019b578063f2fde38b146102285761007d565b80631bf533a41461008257806341c0e1b51461011b578063715018a614610125575b600080fd5b6101196004803603604081101561009857600080fd5b81019080803573ffffffffffffffffffffffffffffffffffffffff169060200190929190803590602001906401000000008111156100d557600080fd5b8201836020820111156100e757600080fd5b8035906020019184600183028401116401000000008311171561010957600080fd5b909192939192939050505061026c565b005b61012361062c565b005b61012d6106ca565b005b610137610803565b604051808273ffffffffffffffffffffffffffffffffffffffff1673ffffffffffffffffffffffffffffffffffffffff16815260200191505060405180910390f35b61018161082c565b604051808215151515815260200191505060405180910390f35b610212600480360360208110156101b157600080fd5b81019080803590602001906401000000008111156101ce57600080fd5b8201836020820111156101e057600080fd5b8035906020019184600183028401116401000000008311171561020257600080fd5b909192939192939050505061088a565b6040518082815260200191505060405180910390f35b61026a6004803603602081101561023e57600080fd5b81019080803573ffffffffffffffffffffffffffffffffffffffff1690602001909291905050506108bf565b005b60001515600260008573ffffffffffffffffffffffffffffffffffffffff1673ffffffffffffffffffffffffffffffffffffffff16815260200190815260200160002060009054906101000a900460ff16151514610332576040517f08c379a000000000000000000000000000000000000000000000000000000000815260040180806020018281038252601b8152602001807f74686520766f7465722068617320616c726561647920766f746564000000000081525060200191505060405180910390fd5b60405160200180807f446f6e616c64205472756d700000000000000000000000000000000000000000815250600c019050604051602081830303815290604052805190602001208282604051602001808383808284378083019250505092505050604051602081830303815290604052805190602001201480610429575060405160200180807f4a6f6520426964656e0000000000000000000000000000000000000000000000815250600901905060405160208183030381529060405280519060200120828260405160200180838380828437808301925050509250505060405160208183030381529060405280519060200120145b61049b576040517f08c379a00000000000000000000000000000000000000000000000000000000081526004018080602001828103825260118152602001807f496e76616c69642043616e64696461746500000000000000000000000000000081525060200191505060405180910390fd5b6001828260405180838380828437808301925050509250505090815260200160405180910390208390806001815401808255809150509060018203906000526020600020016000909192909190916101000a81548173ffffffffffffffffffffffffffffffffffffffff021916908373ffffffffffffffffffffffffffffffffffffffff160217905550506001600260008573ffffffffffffffffffffffffffffffffffffffff1673ffffffffffffffffffffffffffffffffffffffff16815260200190815260200160002060006101000a81548160ff0219169083151502179055506003600081548092919060010191905055507fc8890be6e657dc734d1fb91641621bd1bc2bf263edd04e4198b4db572cc680f6838383604051808473ffffffffffffffffffffffffffffffffffffffff1673ffffffffffffffffffffffffffffffffffffffff168152602001806020018281038252848482818152602001925080828437600081840152601f19601f82011690508083019250505094505050505060405180910390a1505050565b61063461082c565b6106a6576040517f08c379a00000000000000000000000000000000000000000000000000000000081526004018080602001828103825260208152602001807f4f776e61626c653a2063616c6c6572206973206e6f7420746865206f776e657281525060200191505060405180910390fd5b6106ae610803565b61ffff1673ffffffffffffffffffffffffffffffffffffffff16ff5b6106d261082c565b610744576040517f08c379a00000000000000000000000000000000000000000000000000000000081526004018080602001828103825260208152602001807f4f776e61626c653a2063616c6c6572206973206e6f7420746865206f776e657281525060200191505060405180910390fd5b600073ffffffffffffffffffffffffffffffffffffffff166000809054906101000a900473ffffffffffffffffffffffffffffffffffffffff1673ffffffffffffffffffffffffffffffffffffffff167f8be0079c531659141344cd1fd0a4f28419497f9722a3daafe3b4186f6b6457e060405160405180910390a360008060006101000a81548173ffffffffffffffffffffffffffffffffffffffff021916908373ffffffffffffffffffffffffffffffffffffffff160217905550565b60008060009054906101000a900473ffffffffffffffffffffffffffffffffffffffff16905090565b60008060009054906101000a900473ffffffffffffffffffffffffffffffffffffffff1673ffffffffffffffffffffffffffffffffffffffff1661086e610945565b73ffffffffffffffffffffffffffffffffffffffff1614905090565b600060018383604051808383808284378083019250505092505050908152602001604051809103902080549050905092915050565b6108c761082c565b610939576040517f08c379a00000000000000000000000000000000000000000000000000000000081526004018080602001828103825260208152602001807f4f776e61626c653a2063616c6c6572206973206e6f7420746865206f776e657281525060200191505060405180910390fd5b6109428161094d565b50565b600033905090565b600073ffffffffffffffffffffffffffffffffffffffff168173ffffffffffffffffffffffffffffffffffffffff1614156109d3576040517f08c379a0000000000000000000000000000000000000000000000000000000008152600401808060200182810382526026815260200180610a926026913960400191505060405180910390fd5b8073ffffffffffffffffffffffffffffffffffffffff166000809054906101000a900473ffffffffffffffffffffffffffffffffffffffff1673ffffffffffffffffffffffffffffffffffffffff167f8be0079c531659141344cd1fd0a4f28419497f9722a3daafe3b4186f6b6457e060405160405180910390a3806000806101000a81548173ffffffffffffffffffffffffffffffffffffffff021916908373ffffffffffffffffffffffffffffffffffffffff1602179055505056fe4f776e61626c653a206e6577206f776e657220697320746865207a65726f2061646472657373a265627a7a723158203133b535643ea2924410dc3164338d59d5f83b9bd6e17ce6718553503b05747264736f6c63430005100032",
  "source": "pragma solidity >=0.4.21;\nimport \"@openzeppelin/contracts/ownership/Ownable.sol\";\n\ncontract UsElectionVote is Ownable {\n    mapping(string => address[]) candidateVotes;\n    mapping(address => bool) alreadyVote;\n    uint256 totalVotes;\n    event Vote(address voter, string candidate);\n\n    function vote(address _voter, string calldata _candidate) external {\n        require(alreadyVote[_voter] == false, \"the voter has already voted\");\n        require(\n            keccak256(abi.encodePacked(_candidate)) ==\n                keccak256(abi.encodePacked(\"Donald Trump\")) ||\n                keccak256(abi.encodePacked(_candidate)) ==\n                keccak256(abi.encodePacked(\"Joe Biden\")),\n            \"Invalid Candidate\"\n        );\n        candidateVotes[_candidate].push(_voter);\n        alreadyVote[_voter] = true;\n        totalVotes++;\n        emit Vote(_voter, _candidate);\n    }\n\n    function getVote(string calldata _candidate)\n        external\n        view\n        returns (uint256)\n    {\n        return candidateVotes[_candidate].length;\n    }\n\n    function kill() public onlyOwner {\n        selfdestruct(address(uint16(owner())));\n    }\n}\n",
  "sourcePath": "/Users/inmac/Documents/thesis/UsElectionVoteContract/contracts/UsElectionVoteContract.sol",
  "compiler": {
    "name": "solc",
    "version": "0.5.16+commit.9c3226ce.Emscripten.clang"
  },
  "schemaVersion": "3.2.0",
  "updatedAt": "2021-02-07T18:48:23.818Z",
  "devdoc": {
    "methods": {
      "isOwner()": {
        "details": "Returns true if the caller is the current owner."
      },
      "owner()": {
        "details": "Returns the address of the current owner."
      },
      "renounceOwnership()": {
        "details": "Leaves the contract without owner. It will not be possible to call `onlyOwner` functions anymore. Can only be called by the current owner.     * NOTE: Renouncing ownership will leave the contract without an owner, thereby removing any functionality that is only available to the owner."
      },
      "transferOwnership(address)": {
        "details": "Transfers ownership of the contract to a new account (`newOwner`). Can only be called by the current owner."
      }
    }
  },
  "userdoc": {
    "methods": {}
  }
}